{
  "_format": "hh-sol-artifact-1",
  "contractName": "Marketplace",
  "sourceName": "contracts/Marketplace.sol",
  "abi": [
    {
      "inputs": [
        {
          "internalType": "address",
          "name": "_feesBeneficiary",
          "type": "address"
        }
      ],
      "stateMutability": "nonpayable",
      "type": "constructor"
    },
    {
      "anonymous": false,
      "inputs": [
        {
          "indexed": false,
          "internalType": "address",
          "name": "bidder",
          "type": "address"
        },
        {
          "indexed": false,
          "internalType": "address",
          "name": "asker",
          "type": "address"
        },
        {
          "indexed": true,
          "internalType": "address",
          "name": "collection",
          "type": "address"
        },
        {
          "indexed": true,
          "internalType": "uint256",
          "name": "tokenId",
          "type": "uint256"
        },
        {
          "indexed": false,
          "internalType": "uint256",
          "name": "amount",
          "type": "uint256"
        }
      ],
      "name": "Buy",
      "type": "event"
    },
    {
      "anonymous": false,
      "inputs": [
        {
          "indexed": true,
          "internalType": "address",
          "name": "colection",
          "type": "address"
        },
        {
          "indexed": false,
          "internalType": "uint16",
          "name": "buyerFee",
          "type": "uint16"
        },
        {
          "indexed": false,
          "internalType": "uint16",
          "name": "sellerFee",
          "type": "uint16"
        }
      ],
      "name": "MarketplaceFeeChanged",
      "type": "event"
    },
    {
      "anonymous": false,
      "inputs": [
        {
          "indexed": true,
          "internalType": "address",
          "name": "previousOwner",
          "type": "address"
        },
        {
          "indexed": true,
          "internalType": "address",
          "name": "newOwner",
          "type": "address"
        }
      ],
      "name": "OwnershipTransferred",
      "type": "event"
    },
    {
      "inputs": [
        {
          "components": [
            {
              "components": [
                {
                  "internalType": "enum Marketplace.ItemType",
                  "name": "itemType",
                  "type": "uint8"
                },
                {
                  "internalType": "address",
                  "name": "collection",
                  "type": "address"
                },
                {
                  "internalType": "uint256",
                  "name": "id",
                  "type": "uint256"
                },
                {
                  "internalType": "uint256",
                  "name": "amount",
                  "type": "uint256"
                }
              ],
              "internalType": "struct Marketplace.Asset[]",
              "name": "bid",
              "type": "tuple[]"
            },
            {
              "components": [
                {
                  "internalType": "enum Marketplace.ItemType",
                  "name": "itemType",
                  "type": "uint8"
                },
                {
                  "internalType": "address",
                  "name": "collection",
                  "type": "address"
                },
                {
                  "internalType": "uint256",
                  "name": "id",
                  "type": "uint256"
                },
                {
                  "internalType": "uint256",
                  "name": "amount",
                  "type": "uint256"
                }
              ],
              "internalType": "struct Marketplace.Asset[]",
              "name": "ask",
              "type": "tuple[]"
            },
            {
              "internalType": "uint256",
              "name": "totalAmount",
              "type": "uint256"
            },
            {
              "internalType": "uint256",
              "name": "amount",
              "type": "uint256"
            },
            {
              "internalType": "bytes32",
              "name": "root",
              "type": "bytes32"
            },
            {
              "internalType": "bytes",
              "name": "rootSignature",
              "type": "bytes"
            },
            {
              "internalType": "address",
              "name": "signer",
              "type": "address"
            },
            {
              "internalType": "uint256",
              "name": "creationDate",
              "type": "uint256"
            },
            {
              "internalType": "uint256",
              "name": "expirationDate",
              "type": "uint256"
            },
            {
              "internalType": "bytes32[]",
              "name": "proof",
              "type": "bytes32[]"
            },
            {
              "internalType": "bool",
              "name": "askAny",
              "type": "bool"
            },
            {
              "internalType": "bool",
              "name": "bidAny",
              "type": "bool"
            }
          ],
          "internalType": "struct Marketplace.MatchedOrder[]",
          "name": "_matchedOrder",
          "type": "tuple[]"
        },
        {
          "internalType": "uint256",
          "name": "_txExpirationDate",
          "type": "uint256"
        },
        {
          "internalType": "bytes",
          "name": "_orderSignByBack",
          "type": "bytes"
        },
        {
          "internalType": "bytes32[]",
          "name": "_hashes",
          "type": "bytes32[]"
        },
        {
          "internalType": "uint256",
          "name": "_chainId",
          "type": "uint256"
        }
      ],
      "name": "buy",
      "outputs": [],
      "stateMutability": "payable",
      "type": "function"
    },
    {
      "inputs": [
        {
          "internalType": "address",
          "name": "_feesBeneficiary",
          "type": "address"
        }
      ],
      "name": "changeFeesBeneficiary",
      "outputs": [],
      "stateMutability": "nonpayable",
      "type": "function"
    },
    {
      "inputs": [
        {
          "internalType": "address",
          "name": "_collection",
          "type": "address"
        },
        {
          "internalType": "uint16",
          "name": "_buyerFee",
          "type": "uint16"
        },
        {
          "internalType": "uint16",
          "name": "_sellerFee",
          "type": "uint16"
        }
      ],
      "name": "changeMarketplaceCollectionFee",
      "outputs": [],
      "stateMutability": "nonpayable",
      "type": "function"
    },
    {
      "inputs": [],
      "name": "feesBeneficiary",
      "outputs": [
        {
          "internalType": "address",
          "name": "",
          "type": "address"
        }
      ],
      "stateMutability": "view",
      "type": "function"
    },
    {
      "inputs": [
        {
          "internalType": "address",
          "name": "_collection",
          "type": "address"
        }
      ],
      "name": "getMarketplaceFee",
      "outputs": [
        {
          "components": [
            {
              "internalType": "bool",
              "name": "customFee",
              "type": "bool"
            },
            {
              "internalType": "uint16",
              "name": "buyerFee",
              "type": "uint16"
            },
            {
              "internalType": "uint16",
              "name": "sellerFee",
              "type": "uint16"
            }
          ],
          "internalType": "struct Marketplace.MarketplaceFee",
          "name": "",
          "type": "tuple"
        }
      ],
      "stateMutability": "view",
      "type": "function"
    },
    {
      "inputs": [],
      "name": "iGetRoyaltiesInterfaceId",
      "outputs": [
        {
          "internalType": "bytes4",
          "name": "",
          "type": "bytes4"
        }
      ],
      "stateMutability": "view",
      "type": "function"
    },
    {
      "inputs": [],
      "name": "owner",
      "outputs": [
        {
          "internalType": "address",
          "name": "",
          "type": "address"
        }
      ],
      "stateMutability": "view",
      "type": "function"
    },
    {
      "inputs": [
        {
          "internalType": "address",
          "name": "_collection",
          "type": "address"
        }
      ],
      "name": "removeMarketplaceCollectionFee",
      "outputs": [],
      "stateMutability": "nonpayable",
      "type": "function"
    },
    {
      "inputs": [],
      "name": "renounceOwnership",
      "outputs": [],
      "stateMutability": "nonpayable",
      "type": "function"
    },
    {
      "inputs": [
        {
          "internalType": "address",
          "name": "_operator",
          "type": "address"
        }
      ],
      "name": "setOperator",
      "outputs": [],
      "stateMutability": "nonpayable",
      "type": "function"
    },
    {
      "inputs": [
        {
          "components": [
            {
              "internalType": "enum Marketplace.ItemType",
              "name": "itemType",
              "type": "uint8"
            },
            {
              "internalType": "address",
              "name": "collection",
              "type": "address"
            },
            {
              "internalType": "uint256",
              "name": "id",
              "type": "uint256"
            },
            {
              "internalType": "uint256",
              "name": "amount",
              "type": "uint256"
            }
          ],
          "internalType": "struct Marketplace.Asset[]",
          "name": "_ask",
          "type": "tuple[]"
        },
        {
          "components": [
            {
              "internalType": "enum Marketplace.ItemType",
              "name": "itemType",
              "type": "uint8"
            },
            {
              "internalType": "address",
              "name": "collection",
              "type": "address"
            },
            {
              "internalType": "uint256",
              "name": "id",
              "type": "uint256"
            },
            {
              "internalType": "uint256",
              "name": "amount",
              "type": "uint256"
            }
          ],
          "internalType": "struct Marketplace.Asset[]",
          "name": "_bid",
          "type": "tuple[]"
        },
        {
          "internalType": "address",
          "name": "_signer",
          "type": "address"
        }
      ],
      "name": "transferAssets",
      "outputs": [],
      "stateMutability": "payable",
      "type": "function"
    },
    {
      "inputs": [
        {
          "internalType": "address",
          "name": "newOwner",
          "type": "address"
        }
      ],
      "name": "transferOwnership",
      "outputs": [],
      "stateMutability": "nonpayable",
      "type": "function"
    }
  ],
  "bytecode": "0x60806040523480156200001157600080fd5b5060405162005568380380620055688339818101604052810190620000379190620002fe565b620000576200004b6200021b60201b60201c565b6200022360201b60201c565b600180819055507fe983c19a00000000000000000000000000000000000000000000000000000000600260146101000a81548163ffffffff021916908360e01c021790555080600260006101000a81548173ffffffffffffffffffffffffffffffffffffffff021916908373ffffffffffffffffffffffffffffffffffffffff160217905550600160036000620000f36200021b60201b60201c565b73ffffffffffffffffffffffffffffffffffffffff1673ffffffffffffffffffffffffffffffffffffffff16815260200190815260200160002060006101000a81548160ff021916908315150217905550604051806060016040528060011515815260200160fa61ffff16815260200160fa61ffff16815250600460008073ffffffffffffffffffffffffffffffffffffffff1673ffffffffffffffffffffffffffffffffffffffff16815260200190815260200160002060008201518160000160006101000a81548160ff02191690831515021790555060208201518160000160016101000a81548161ffff021916908361ffff16021790555060408201518160000160036101000a81548161ffff021916908361ffff1602179055509050505062000378565b600033905090565b60008060009054906101000a900473ffffffffffffffffffffffffffffffffffffffff169050816000806101000a81548173ffffffffffffffffffffffffffffffffffffffff021916908373ffffffffffffffffffffffffffffffffffffffff1602179055508173ffffffffffffffffffffffffffffffffffffffff168173ffffffffffffffffffffffffffffffffffffffff167f8be0079c531659141344cd1fd0a4f28419497f9722a3daafe3b4186f6b6457e060405160405180910390a35050565b600081519050620002f8816200035e565b92915050565b6000602082840312156200031157600080fd5b60006200032184828501620002e7565b91505092915050565b600062000337826200033e565b9050919050565b600073ffffffffffffffffffffffffffffffffffffffff82169050919050565b62000369816200032a565b81146200037557600080fd5b50565b6151e080620003886000396000f3fe6080604052600436106100a75760003560e01c80638e92f12d116100645780638e92f12d14610199578063b3ab15fb146101c4578063c774c728146101ed578063d7acf73014610218578063e4fce8f414610234578063f2fde38b1461025d576100a7565b80633b6c98cd146100ac578063440c2711146100c857806370625f08146100f1578063715018a61461012e57806374e4ddd8146101455780638da5cb5b1461016e575b600080fd5b6100c660048036038101906100c19190613aaf565b610286565b005b3480156100d457600080fd5b506100ef60048036038101906100ea9190613942565b61087a565b005b3480156100fd57600080fd5b5061011860048036038101906101139190613942565b6108c6565b60405161012591906146ba565b60405180910390f35b34801561013a57600080fd5b50610143610a7c565b005b34801561015157600080fd5b5061016c60048036038101906101679190613942565b610a90565b005b34801561017a57600080fd5b50610183610c7b565b6040516101909190614177565b60405180910390f35b3480156101a557600080fd5b506101ae610ca4565b6040516101bb919061437a565b60405180910390f35b3480156101d057600080fd5b506101eb60048036038101906101e69190613942565b610cb7565b005b3480156101f957600080fd5b50610202610da6565b60405161020f9190614177565b60405180910390f35b610232600480360381019061022d9190613a26565b610dcc565b005b34801561024057600080fd5b5061025b6004803603810190610256919061396b565b611fc1565b005b34801561026957600080fd5b50610284600480360381019061027f9190613942565b6120ec565b005b600260015414156102cc576040517f08c379a00000000000000000000000000000000000000000000000000000000081526004016102c39061467a565b60405180910390fd5b6002600181905550428611610316576040517f08c379a000000000000000000000000000000000000000000000000000000000815260040161030d906145ba565b60405180910390fd5b60006103a586868080601f016020809104026020016040519081016040528093929190818152602001838380828437600081840152601f19601f82011690508083019250505050505050610397893086898960405160200161037c959493929190614719565b60405160208183030381529060405280519060200120612170565b6121a090919063ffffffff16565b90506103b0816121c7565b6103ef576040517f08c379a00000000000000000000000000000000000000000000000000000000081526004016103e6906144fa565b60405180910390fd5b5060005b8888905081101561086857888882818110610437577f4e487b7100000000000000000000000000000000000000000000000000000000600052603260045260246000fd5b9050602002810190610449919061486c565b60400135898983818110610486577f4e487b7100000000000000000000000000000000000000000000000000000000600052603260045260246000fd5b9050602002810190610498919061486c565b6060013511156104dd576040517f08c379a00000000000000000000000000000000000000000000000000000000081526004016104d4906145fa565b60405180910390fd5b60006105e48a8a8481811061051b577f4e487b7100000000000000000000000000000000000000000000000000000000600052603260045260246000fd5b905060200281019061052d919061486c565b8060a0019061053c9190614815565b8080601f016020809104026020016040519081016040528093929190818152602001838380828437600081840152601f19601f820116905080830192505050505050506105d68c8c868181106105bb577f4e487b7100000000000000000000000000000000000000000000000000000000600052603260045260246000fd5b90506020028101906105cd919061486c565b60800135612170565b6121a090919063ffffffff16565b90508073ffffffffffffffffffffffffffffffffffffffff168a8a84818110610636577f4e487b7100000000000000000000000000000000000000000000000000000000600052603260045260246000fd5b9050602002810190610648919061486c565b60c001602081019061065a9190613942565b73ffffffffffffffffffffffffffffffffffffffff16146106b0576040517f08c379a00000000000000000000000000000000000000000000000000000000081526004016106a79061455a565b60405180910390fd5b506107448989838181106106ed577f4e487b7100000000000000000000000000000000000000000000000000000000600052603260045260246000fd5b90506020028101906106ff919061486c565b858584818110610738577f4e487b7100000000000000000000000000000000000000000000000000000000600052603260045260246000fd5b9050602002013561221d565b61085d898983818110610780577f4e487b7100000000000000000000000000000000000000000000000000000000600052603260045260246000fd5b9050602002810190610792919061486c565b80602001906107a191906147be565b8b8b858181106107da577f4e487b7100000000000000000000000000000000000000000000000000000000600052603260045260246000fd5b90506020028101906107ec919061486c565b80600001906107fb91906147be565b8d8d87818110610834577f4e487b7100000000000000000000000000000000000000000000000000000000600052603260045260246000fd5b9050602002810190610846919061486c565b60c00160208101906108589190613942565b610dcc565b8060010190506103f3565b50600180819055505050505050505050565b61088261239f565b80600260006101000a81548173ffffffffffffffffffffffffffffffffffffffff021916908373ffffffffffffffffffffffffffffffffffffffff16021790555050565b6108ce61361b565b600460008373ffffffffffffffffffffffffffffffffffffffff1673ffffffffffffffffffffffffffffffffffffffff16815260200190815260200160002060000160009054906101000a900460ff16156109cf57600460008373ffffffffffffffffffffffffffffffffffffffff1673ffffffffffffffffffffffffffffffffffffffff1681526020019081526020016000206040518060600160405290816000820160009054906101000a900460ff161515151581526020016000820160019054906101000a900461ffff1661ffff1661ffff1681526020016000820160039054906101000a900461ffff1661ffff1661ffff16815250509050610a77565b600460008073ffffffffffffffffffffffffffffffffffffffff1673ffffffffffffffffffffffffffffffffffffffff1681526020019081526020016000206040518060600160405290816000820160009054906101000a900460ff161515151581526020016000820160019054906101000a900461ffff1661ffff1661ffff1681526020016000820160039054906101000a900461ffff1661ffff1661ffff168152505090505b919050565b610a8461239f565b610a8e600061241d565b565b610a9861239f565b600073ffffffffffffffffffffffffffffffffffffffff168173ffffffffffffffffffffffffffffffffffffffff161415610b08576040517f08c379a0000000000000000000000000000000000000000000000000000000008152600401610aff9061451a565b60405180910390fd5b600460008273ffffffffffffffffffffffffffffffffffffffff1673ffffffffffffffffffffffffffffffffffffffff168152602001908152602001600020600080820160006101000a81549060ff02191690556000820160016101000a81549061ffff02191690556000820160036101000a81549061ffff021916905550508073ffffffffffffffffffffffffffffffffffffffff167f6ffff6c2d762403e2b0abf9f0a2d8b3bef95f82c3164deaf91d7f6aca6a181df600460008073ffffffffffffffffffffffffffffffffffffffff1673ffffffffffffffffffffffffffffffffffffffff16815260200190815260200160002060000160019054906101000a900461ffff16600460008073ffffffffffffffffffffffffffffffffffffffff1673ffffffffffffffffffffffffffffffffffffffff16815260200190815260200160002060000160039054906101000a900461ffff16604051610c709291906146d5565b60405180910390a250565b60008060009054906101000a900473ffffffffffffffffffffffffffffffffffffffff16905090565b600260149054906101000a900460e01b81565b610cbf61239f565b600360008273ffffffffffffffffffffffffffffffffffffffff1673ffffffffffffffffffffffffffffffffffffffff16815260200190815260200160002060009054906101000a900460ff16610d4b576040517f08c379a0000000000000000000000000000000000000000000000000000000008152600401610d429061457a565b60405180910390fd5b6001600360008373ffffffffffffffffffffffffffffffffffffffff1673ffffffffffffffffffffffffffffffffffffffff16815260200190815260200160002060006101000a81548160ff02191690831515021790555050565b600260009054906101000a900473ffffffffffffffffffffffffffffffffffffffff1681565b6000858590508484905011610de45785859050610de9565b838390505b905060005b81811015611fb857848490508110156114af57600380811115610e3a577f4e487b7100000000000000000000000000000000000000000000000000000000600052602160045260246000fd5b858583818110610e73577f4e487b7100000000000000000000000000000000000000000000000000000000600052603260045260246000fd5b9050608002016000016020810190610e8b9190613bcd565b6003811115610ec3577f4e487b7100000000000000000000000000000000000000000000000000000000600052602160045260246000fd5b141561101a57848482818110610f02577f4e487b7100000000000000000000000000000000000000000000000000000000600052603260045260246000fd5b9050608002016020016020810190610f1a9190613942565b73ffffffffffffffffffffffffffffffffffffffff1663f242432a84610f3e6124e1565b888886818110610f77577f4e487b7100000000000000000000000000000000000000000000000000000000600052603260045260246000fd5b90506080020160400135898987818110610fba577f4e487b7100000000000000000000000000000000000000000000000000000000600052603260045260246000fd5b905060800201606001356040518563ffffffff1660e01b8152600401610fe39493929190614200565b600060405180830381600087803b158015610ffd57600080fd5b505af1158015611011573d6000803e3d6000fd5b505050506114ae565b60026003811115611054577f4e487b7100000000000000000000000000000000000000000000000000000000600052602160045260246000fd5b85858381811061108d577f4e487b7100000000000000000000000000000000000000000000000000000000600052603260045260246000fd5b90506080020160000160208101906110a59190613bcd565b60038111156110dd577f4e487b7100000000000000000000000000000000000000000000000000000000600052602160045260246000fd5b141561127557600185858381811061111e577f4e487b7100000000000000000000000000000000000000000000000000000000600052603260045260246000fd5b9050608002016060013514611168576040517f08c379a000000000000000000000000000000000000000000000000000000000815260040161115f9061469a565b60405180910390fd5b8484828181106111a1577f4e487b7100000000000000000000000000000000000000000000000000000000600052603260045260246000fd5b90506080020160200160208101906111b99190613942565b73ffffffffffffffffffffffffffffffffffffffff166342842e0e846111dd6124e1565b888886818110611216577f4e487b7100000000000000000000000000000000000000000000000000000000600052603260045260246000fd5b905060800201604001356040518463ffffffff1660e01b815260040161123e939291906141c9565b600060405180830381600087803b15801561125857600080fd5b505af115801561126c573d6000803e3d6000fd5b505050506114ad565b600160038111156112af577f4e487b7100000000000000000000000000000000000000000000000000000000600052602160045260246000fd5b8585838181106112e8577f4e487b7100000000000000000000000000000000000000000000000000000000600052603260045260246000fd5b90506080020160000160208101906113009190613bcd565b6003811115611338577f4e487b7100000000000000000000000000000000000000000000000000000000600052602160045260246000fd5b14156114ac576000858583818110611379577f4e487b7100000000000000000000000000000000000000000000000000000000600052603260045260246000fd5b90506080020160200160208101906113919190613942565b73ffffffffffffffffffffffffffffffffffffffff166323b872dd856113b56124e1565b8989878181106113ee577f4e487b7100000000000000000000000000000000000000000000000000000000600052603260045260246000fd5b905060800201606001356040518463ffffffff1660e01b8152600401611416939291906141c9565b602060405180830381600087803b15801561143057600080fd5b505af1158015611444573d6000803e3d6000fd5b505050506040513d601f19601f820116820180604052508101906114689190613ba4565b9050806114aa576040517f08c379a00000000000000000000000000000000000000000000000000000000081526004016114a19061463a565b60405180910390fd5b505b5b5b5b86869050811015611fad576003808111156114f3577f4e487b7100000000000000000000000000000000000000000000000000000000600052602160045260246000fd5b87878381811061152c577f4e487b7100000000000000000000000000000000000000000000000000000000600052603260045260246000fd5b90506080020160000160208101906115449190613bcd565b600381111561157c577f4e487b7100000000000000000000000000000000000000000000000000000000600052602160045260246000fd5b14156116d3578686828181106115bb577f4e487b7100000000000000000000000000000000000000000000000000000000600052603260045260246000fd5b90506080020160200160208101906115d39190613942565b73ffffffffffffffffffffffffffffffffffffffff1663f242432a6115f66124e1565b85888886818110611630577f4e487b7100000000000000000000000000000000000000000000000000000000600052603260045260246000fd5b905060800201604001358b8b87818110611673577f4e487b7100000000000000000000000000000000000000000000000000000000600052603260045260246000fd5b905060800201606001356040518563ffffffff1660e01b815260040161169c9493929190614200565b600060405180830381600087803b1580156116b657600080fd5b505af11580156116ca573d6000803e3d6000fd5b50505050611fac565b6002600381111561170d577f4e487b7100000000000000000000000000000000000000000000000000000000600052602160045260246000fd5b878783818110611746577f4e487b7100000000000000000000000000000000000000000000000000000000600052603260045260246000fd5b905060800201600001602081019061175e9190613bcd565b6003811115611796577f4e487b7100000000000000000000000000000000000000000000000000000000600052602160045260246000fd5b141561192e5760018787838181106117d7577f4e487b7100000000000000000000000000000000000000000000000000000000600052603260045260246000fd5b9050608002016060013514611821576040517f08c379a00000000000000000000000000000000000000000000000000000000081526004016118189061469a565b60405180910390fd5b86868281811061185a577f4e487b7100000000000000000000000000000000000000000000000000000000600052603260045260246000fd5b90506080020160200160208101906118729190613942565b73ffffffffffffffffffffffffffffffffffffffff166342842e0e6118956124e1565b858a8a868181106118cf577f4e487b7100000000000000000000000000000000000000000000000000000000600052603260045260246000fd5b905060800201604001356040518463ffffffff1660e01b81526004016118f7939291906141c9565b600060405180830381600087803b15801561191157600080fd5b505af1158015611925573d6000803e3d6000fd5b50505050611fab565b60016003811115611968577f4e487b7100000000000000000000000000000000000000000000000000000000600052602160045260246000fd5b8787838181106119a1577f4e487b7100000000000000000000000000000000000000000000000000000000600052603260045260246000fd5b90506080020160000160208101906119b99190613bcd565b60038111156119f1577f4e487b7100000000000000000000000000000000000000000000000000000000600052602160045260246000fd5b1415611ca9576000611b29868684818110611a35577f4e487b7100000000000000000000000000000000000000000000000000000000600052603260045260246000fd5b9050608002016020016020810190611a4d9190613942565b898985818110611a86577f4e487b7100000000000000000000000000000000000000000000000000000000600052603260045260246000fd5b9050608002016020016020810190611a9e9190613942565b8a8a86818110611ad7577f4e487b7100000000000000000000000000000000000000000000000000000000600052603260045260246000fd5b90506080020160600135898987818110611b1a577f4e487b7100000000000000000000000000000000000000000000000000000000600052603260045260246000fd5b905060800201604001356124e9565b90506000888884818110611b66577f4e487b7100000000000000000000000000000000000000000000000000000000600052603260045260246000fd5b9050608002016020016020810190611b7e9190613942565b73ffffffffffffffffffffffffffffffffffffffff166323b872dd611ba16124e1565b87858d8d89818110611bdc577f4e487b7100000000000000000000000000000000000000000000000000000000600052603260045260246000fd5b90506080020160600135611bf09190614ab0565b6040518463ffffffff1660e01b8152600401611c0e939291906141c9565b602060405180830381600087803b158015611c2857600080fd5b505af1158015611c3c573d6000803e3d6000fd5b505050506040513d601f19601f82011682018060405250810190611c609190613ba4565b905080611ca2576040517f08c379a0000000000000000000000000000000000000000000000000000000008152600401611c999061463a565b60405180910390fd5b5050611faa565b60006003811115611ce3577f4e487b7100000000000000000000000000000000000000000000000000000000600052602160045260246000fd5b858583818110611d1c577f4e487b7100000000000000000000000000000000000000000000000000000000600052603260045260246000fd5b9050608002016000016020810190611d349190613bcd565b6003811115611d6c577f4e487b7100000000000000000000000000000000000000000000000000000000600052602160045260246000fd5b1415611fa9576000611ea4868684818110611db0577f4e487b7100000000000000000000000000000000000000000000000000000000600052603260045260246000fd5b9050608002016020016020810190611dc89190613942565b898985818110611e01577f4e487b7100000000000000000000000000000000000000000000000000000000600052603260045260246000fd5b9050608002016020016020810190611e199190613942565b8a8a86818110611e52577f4e487b7100000000000000000000000000000000000000000000000000000000600052603260045260246000fd5b90506080020160600135898987818110611e95577f4e487b7100000000000000000000000000000000000000000000000000000000600052603260045260246000fd5b905060800201604001356124e9565b90506000611eb06124e1565b73ffffffffffffffffffffffffffffffffffffffff1682888886818110611f00577f4e487b7100000000000000000000000000000000000000000000000000000000600052603260045260246000fd5b90506080020160600135611f149190614ab0565b604051611f2090614162565b60006040518083038185875af1925050503d8060008114611f5d576040519150601f19603f3d011682016040523d82523d6000602084013e611f62565b606091505b5050905080611fa6576040517f08c379a0000000000000000000000000000000000000000000000000000000008152600401611f9d9061463a565b60405180910390fd5b50505b5b5b5b5b806001019050610dee565b50505050505050565b611fc961239f565b60405180606001604052806001151581526020018361ffff1681526020018261ffff16815250600460008573ffffffffffffffffffffffffffffffffffffffff1673ffffffffffffffffffffffffffffffffffffffff16815260200190815260200160002060008201518160000160006101000a81548160ff02191690831515021790555060208201518160000160016101000a81548161ffff021916908361ffff16021790555060408201518160000160036101000a81548161ffff021916908361ffff1602179055509050508273ffffffffffffffffffffffffffffffffffffffff167f6ffff6c2d762403e2b0abf9f0a2d8b3bef95f82c3164deaf91d7f6aca6a181df83836040516120df9291906146d5565b60405180910390a2505050565b6120f461239f565b600073ffffffffffffffffffffffffffffffffffffffff168173ffffffffffffffffffffffffffffffffffffffff161415612164576040517f08c379a000000000000000000000000000000000000000000000000000000000815260040161215b906144da565b60405180910390fd5b61216d8161241d565b50565b600081604051602001612183919061413c565b604051602081830303815290604052805190602001209050919050565b60008060006121af858561271d565b915091506121bc816127a0565b819250505092915050565b6000600360008373ffffffffffffffffffffffffffffffffffffffff1673ffffffffffffffffffffffffffffffffffffffff16815260200190815260200160002060009054906101000a900460ff169050919050565b600061222883612af1565b905081811461226c576040517f08c379a00000000000000000000000000000000000000000000000000000000081526004016122639061465a565b60405180910390fd5b60005b838061012001906122809190614767565b90508110156123535760008480610120019061229c9190614767565b838181106122d3577f4e487b7100000000000000000000000000000000000000000000000000000000600052603260045260246000fd5b9050602002013590508083116123135782816040516020016122f6929190614110565b60405160208183030381529060405280519060200120925061233f565b8083604051602001612326929190614110565b6040516020818303038152906040528051906020012092505b50808061234b90614c2a565b91505061226f565b508260800135811461239a576040517f08c379a00000000000000000000000000000000000000000000000000000000081526004016123919061461a565b60405180910390fd5b505050565b6123a76124e1565b73ffffffffffffffffffffffffffffffffffffffff166123c5610c7b565b73ffffffffffffffffffffffffffffffffffffffff161461241b576040517f08c379a0000000000000000000000000000000000000000000000000000000008152600401612412906145da565b60405180910390fd5b565b60008060009054906101000a900473ffffffffffffffffffffffffffffffffffffffff169050816000806101000a81548173ffffffffffffffffffffffffffffffffffffffff021916908373ffffffffffffffffffffffffffffffffffffffff1602179055508173ffffffffffffffffffffffffffffffffffffffff168173ffffffffffffffffffffffffffffffffffffffff167f8be0079c531659141344cd1fd0a4f28419497f9722a3daafe3b4186f6b6457e060405160405180910390a35050565b600033905090565b6000806124f5866108c6565b9050600061250b85836020015161ffff16613167565b9050600061252186846040015161ffff16613167565b9050600080828461253291906149cf565b111561263e578773ffffffffffffffffffffffffffffffffffffffff166323b872dd61255c6124e1565b600260009054906101000a900473ffffffffffffffffffffffffffffffffffffffff16858761258b91906149cf565b6040518463ffffffff1660e01b81526004016125a9939291906141c9565b602060405180830381600087803b1580156125c357600080fd5b505af11580156125d7573d6000803e3d6000fd5b505050506040513d601f19601f820116820180604052508101906125fb9190613ba4565b90508061263d576040517f08c379a00000000000000000000000000000000000000000000000000000000081526004016126349061463a565b60405180910390fd5b5b60008973ffffffffffffffffffffffffffffffffffffffff166301ffc9a7600260149054906101000a900460e01b6040518263ffffffff1660e01b8152600401612688919061437a565b60206040518083038186803b1580156126a057600080fd5b505afa1580156126b4573d6000803e3d6000fd5b505050506040513d601f19601f820116820180604052508101906126d89190613ba4565b156126f757826126ea8b8b8b8b61318a565b6126f491906149cf565b90505b80838561270491906149cf565b61270e91906149cf565b95505050505050949350505050565b60008060418351141561275f5760008060006020860151925060408601519150606086015160001a9050612753878285856134af565b94509450505050612799565b6040835114156127905760008060208501519150604085015190506127858683836135bc565b935093505050612799565b60006002915091505b9250929050565b600060048111156127da577f4e487b7100000000000000000000000000000000000000000000000000000000600052602160045260246000fd5b816004811115612813577f4e487b7100000000000000000000000000000000000000000000000000000000600052602160045260246000fd5b141561281e57612aee565b60016004811115612858577f4e487b7100000000000000000000000000000000000000000000000000000000600052602160045260246000fd5b816004811115612891577f4e487b7100000000000000000000000000000000000000000000000000000000600052602160045260246000fd5b14156128d2576040517f08c379a00000000000000000000000000000000000000000000000000000000081526004016128c99061449a565b60405180910390fd5b6002600481111561290c577f4e487b7100000000000000000000000000000000000000000000000000000000600052602160045260246000fd5b816004811115612945577f4e487b7100000000000000000000000000000000000000000000000000000000600052602160045260246000fd5b1415612986576040517f08c379a000000000000000000000000000000000000000000000000000000000815260040161297d906144ba565b60405180910390fd5b600360048111156129c0577f4e487b7100000000000000000000000000000000000000000000000000000000600052602160045260246000fd5b8160048111156129f9577f4e487b7100000000000000000000000000000000000000000000000000000000600052602160045260246000fd5b1415612a3a576040517f08c379a0000000000000000000000000000000000000000000000000000000008152600401612a319061453a565b60405180910390fd5b600480811115612a73577f4e487b7100000000000000000000000000000000000000000000000000000000600052602160045260246000fd5b816004811115612aac577f4e487b7100000000000000000000000000000000000000000000000000000000600052602160045260246000fd5b1415612aed576040517f08c379a0000000000000000000000000000000000000000000000000000000008152600401612ae49061459a565b60405180910390fd5b5b50565b600081610140016020810190612b079190613b7b565b8015612b2457506001828060200190612b2091906147be565b9050145b8015612b40575081610160016020810190612b3f9190613b7b565b5b8015612b5d57506001828060000190612b5991906147be565b9050145b15612dcb57818060000190612b7291906147be565b6000818110612baa577f4e487b7100000000000000000000000000000000000000000000000000000000600052603260045260246000fd5b9050608002016000016020810190612bc29190613bcd565b828060000190612bd291906147be565b6000818110612c0a577f4e487b7100000000000000000000000000000000000000000000000000000000600052603260045260246000fd5b9050608002016020016020810190612c229190613942565b838060000190612c3291906147be565b6000818110612c6a577f4e487b7100000000000000000000000000000000000000000000000000000000600052603260045260246000fd5b90506080020160600135848060200190612c8491906147be565b6000818110612cbc577f4e487b7100000000000000000000000000000000000000000000000000000000600052603260045260246000fd5b9050608002016000016020810190612cd49190613bcd565b858060200190612ce491906147be565b6000818110612d1c577f4e487b7100000000000000000000000000000000000000000000000000000000600052603260045260246000fd5b9050608002016020016020810190612d349190613942565b868060200190612d4491906147be565b6000818110612d7c577f4e487b7100000000000000000000000000000000000000000000000000000000600052603260045260246000fd5b9050608002016060013587604001358860e00135896101000135604051602001612dae9998979695949392919061440d565b604051602081830303815290604052805190602001209050613162565b81610140016020810190612ddf9190613b7b565b8015612dfc57506001828060200190612df891906147be565b9050145b15612f6757818060000190612e1191906147be565b838060200190612e2191906147be565b6000818110612e59577f4e487b7100000000000000000000000000000000000000000000000000000000600052603260045260246000fd5b9050608002016000016020810190612e719190613bcd565b848060200190612e8191906147be565b6000818110612eb9577f4e487b7100000000000000000000000000000000000000000000000000000000600052603260045260246000fd5b9050608002016020016020810190612ed19190613942565b858060200190612ee191906147be565b6000818110612f19577f4e487b7100000000000000000000000000000000000000000000000000000000600052603260045260246000fd5b9050608002016060013586604001358760e00135886101000135604051602001612f4a9897969594939291906142bd565b604051602081830303815290604052805190602001209050613162565b81610160016020810190612f7b9190613b7b565b8015612f9857506001828060000190612f9491906147be565b9050145b1561310357818060000190612fad91906147be565b6000818110612fe5577f4e487b7100000000000000000000000000000000000000000000000000000000600052603260045260246000fd5b9050608002016000016020810190612ffd9190613bcd565b82806000019061300d91906147be565b6000818110613045577f4e487b7100000000000000000000000000000000000000000000000000000000600052603260045260246000fd5b905060800201602001602081019061305d9190613942565b83806000019061306d91906147be565b60008181106130a5577f4e487b7100000000000000000000000000000000000000000000000000000000600052603260045260246000fd5b905060800201606001358480602001906130bf91906147be565b86604001358760e001358861010001356040516020016130e6989796959493929190614395565b604051602081830303815290604052805190602001209050613162565b81806000019061311391906147be565b83806020019061312391906147be565b85604001358660e001358761010001356040516020016131499796959493929190614258565b6040516020818303038152906040528051906020012090505b919050565b600061271082846131789190614a56565b6131829190614a25565b905092915050565b60008060008673ffffffffffffffffffffffffffffffffffffffff1663bb3bafd6856040518263ffffffff1660e01b81526004016131c891906146fe565b60006040518083038186803b1580156131e057600080fd5b505afa1580156131f4573d6000803e3d6000fd5b505050506040513d6000823e3d601f19601f8201168201806040525081019061321d91906139ba565b9150915060008060005b845181101561349f57600061327c8986848151811061326f577f4e487b7100000000000000000000000000000000000000000000000000000000600052603260045260246000fd5b6020026020010151613167565b9050600073ffffffffffffffffffffffffffffffffffffffff168a73ffffffffffffffffffffffffffffffffffffffff161415613364578582815181106132ec577f4e487b7100000000000000000000000000000000000000000000000000000000600052603260045260246000fd5b602002602001015173ffffffffffffffffffffffffffffffffffffffff168160405161331790614162565b60006040518083038185875af1925050503d8060008114613354576040519150601f19603f3d011682016040523d82523d6000602084013e613359565b606091505b50508093505061343d565b8973ffffffffffffffffffffffffffffffffffffffff166323b872dd6133886124e1565b8885815181106133c1577f4e487b7100000000000000000000000000000000000000000000000000000000600052603260045260246000fd5b6020026020010151846040518463ffffffff1660e01b81526004016133e893929190614192565b602060405180830381600087803b15801561340257600080fd5b505af1158015613416573d6000803e3d6000fd5b505050506040513d601f19601f8201168201806040525081019061343a9190613ba4565b92505b8261347d576040517f08c379a00000000000000000000000000000000000000000000000000000000081526004016134749061463a565b60405180910390fd5b808461348991906149cf565b935050808061349790614c2a565b915050613227565b5081945050505050949350505050565b6000807f7fffffffffffffffffffffffffffffff5d576e7357a4501ddfe92f46681b20a08360001c11156134ea5760006003915091506135b3565b601b8560ff16141580156135025750601c8560ff1614155b156135145760006004915091506135b3565b6000600187878787604051600081526020016040526040516135399493929190614335565b6020604051602081039080840390855afa15801561355b573d6000803e3d6000fd5b505050602060405103519050600073ffffffffffffffffffffffffffffffffffffffff168173ffffffffffffffffffffffffffffffffffffffff1614156135aa576000600192509250506135b3565b80600092509250505b94509492505050565b60008060007f7fffffffffffffffffffffffffffffffffffffffffffffffffffffffffffffff60001b841690506000601b60ff8660001c901c6135ff91906149cf565b905061360d878288856134af565b935093505050935093915050565b6040518060600160405280600015158152602001600061ffff168152602001600061ffff1681525090565b6000613659613654846148b6565b614891565b9050808382526020820190508285602086028201111561367857600080fd5b60005b858110156136a8578161368e8882613733565b84526020840193506020830192505060018101905061367b565b5050509392505050565b60006136c56136c0846148e2565b614891565b905080838252602082019050828560208602820111156136e457600080fd5b60005b8581101561371457816136fa888261392d565b8452602084019350602083019250506001810190506136e7565b5050509392505050565b60008135905061372d81615127565b92915050565b6000815190506137428161513e565b92915050565b600082601f83011261375957600080fd5b8151613769848260208601613646565b91505092915050565b60008083601f84011261378457600080fd5b8235905067ffffffffffffffff81111561379d57600080fd5b6020830191508360208202830111156137b557600080fd5b9250929050565b60008083601f8401126137ce57600080fd5b8235905067ffffffffffffffff8111156137e757600080fd5b6020830191508360808202830111156137ff57600080fd5b9250929050565b60008083601f84011261381857600080fd5b8235905067ffffffffffffffff81111561383157600080fd5b60208301915083602082028301111561384957600080fd5b9250929050565b600082601f83011261386157600080fd5b81516138718482602086016136b2565b91505092915050565b60008135905061388981615155565b92915050565b60008151905061389e81615155565b92915050565b60008083601f8401126138b657600080fd5b8235905067ffffffffffffffff8111156138cf57600080fd5b6020830191508360018202830111156138e757600080fd5b9250929050565b6000813590506138fd8161516c565b92915050565b6000813590506139128161517c565b92915050565b60008135905061392781615193565b92915050565b60008151905061393c81615193565b92915050565b60006020828403121561395457600080fd5b60006139628482850161371e565b91505092915050565b60008060006060848603121561398057600080fd5b600061398e8682870161371e565b935050602061399f86828701613903565b92505060406139b086828701613903565b9150509250925092565b600080604083850312156139cd57600080fd5b600083015167ffffffffffffffff8111156139e757600080fd5b6139f385828601613748565b925050602083015167ffffffffffffffff811115613a1057600080fd5b613a1c85828601613850565b9150509250929050565b600080600080600060608688031215613a3e57600080fd5b600086013567ffffffffffffffff811115613a5857600080fd5b613a64888289016137bc565b9550955050602086013567ffffffffffffffff811115613a8357600080fd5b613a8f888289016137bc565b93509350506040613aa28882890161371e565b9150509295509295909350565b60008060008060008060008060a0898b031215613acb57600080fd5b600089013567ffffffffffffffff811115613ae557600080fd5b613af18b828c01613806565b98509850506020613b048b828c01613918565b965050604089013567ffffffffffffffff811115613b2157600080fd5b613b2d8b828c016138a4565b9550955050606089013567ffffffffffffffff811115613b4c57600080fd5b613b588b828c01613772565b93509350506080613b6b8b828c01613918565b9150509295985092959890939650565b600060208284031215613b8d57600080fd5b6000613b9b8482850161387a565b91505092915050565b600060208284031215613bb657600080fd5b6000613bc48482850161388f565b91505092915050565b600060208284031215613bdf57600080fd5b6000613bed848285016138ee565b91505092915050565b6000613c02838361400e565b60808301905092915050565b613c1781614ba2565b82525050565b613c2681614ae4565b82525050565b613c3581614ae4565b82525050565b6000613c478385614925565b93507f07ffffffffffffffffffffffffffffffffffffffffffffffffffffffffffffff831115613c7657600080fd5b602083029250613c87838584614bea565b82840190509392505050565b6000613c9f8385614936565b9350613caa8261490e565b8060005b85811015613ce357613cc082846149ad565b613cca8882613bf6565b9750613cd583614918565b925050600181019050613cae565b5085925050509392505050565b613cf981614b08565b82525050565b613d0881614b14565b82525050565b613d1f613d1a82614b14565b614c73565b82525050565b613d2e81614b1e565b82525050565b613d3d81614bb4565b82525050565b613d4c81614bb4565b82525050565b6000613d5f601883614963565b9150613d6a82614d4a565b602082019050919050565b6000613d82601f83614963565b9150613d8d82614d73565b602082019050919050565b6000613da5601c83614974565b9150613db082614d9c565b601c82019050919050565b6000613dc8602683614963565b9150613dd382614dc5565b604082019050919050565b6000613deb602583614963565b9150613df682614e14565b604082019050919050565b6000613e0e601083614963565b9150613e1982614e63565b602082019050919050565b6000613e31602283614963565b9150613e3c82614e8c565b604082019050919050565b6000613e54602d83614963565b9150613e5f82614edb565b604082019050919050565b6000613e77602983614963565b9150613e8282614f2a565b604082019050919050565b6000613e9a602283614963565b9150613ea582614f79565b604082019050919050565b6000613ebd601783614963565b9150613ec882614fc8565b602082019050919050565b6000613ee0602083614963565b9150613eeb82614ff1565b602082019050919050565b6000613f03601983614963565b9150613f0e8261501a565b602082019050919050565b6000613f26600083614947565b9150613f3182615043565b600082019050919050565b6000613f49600083614958565b9150613f5482615043565b600082019050919050565b6000613f6c601483614963565b9150613f7782615046565b602082019050919050565b6000613f8f600e83614963565b9150613f9a8261506f565b602082019050919050565b6000613fb2601a83614963565b9150613fbd82615098565b602082019050919050565b6000613fd5601f83614963565b9150613fe0826150c1565b602082019050919050565b6000613ff8600c83614963565b9150614003826150ea565b602082019050919050565b6080820161401f6000830183614996565b61402c6000850182613d34565b5061403a602083018361497f565b6140476020850182613c1d565b5061405560408301836149b8565b61406260408501826140e3565b5061407060608301836149b8565b61407d60608501826140e3565b50505050565b6060820160008201516140996000850182613cf0565b5060208201516140ac60208501826140c5565b5060408201516140bf60408501826140c5565b50505050565b6140ce81614b5d565b82525050565b6140dd81614b5d565b82525050565b6140ec81614b8b565b82525050565b6140fb81614b8b565b82525050565b61410a81614b95565b82525050565b600061411c8285613d0e565b60208201915061412c8284613d0e565b6020820191508190509392505050565b600061414782613d98565b91506141538284613d0e565b60208201915081905092915050565b600061416d82613f3c565b9150819050919050565b600060208201905061418c6000830184613c2c565b92915050565b60006060820190506141a76000830186613c2c565b6141b46020830185613c0e565b6141c160408301846140f2565b949350505050565b60006060820190506141de6000830186613c2c565b6141eb6020830185613c2c565b6141f860408301846140f2565b949350505050565b600060a0820190506142156000830187613c2c565b6142226020830186613c2c565b61422f60408301856140f2565b61423c60608301846140f2565b818103608083015261424d81613f19565b905095945050505050565b600060a082019050818103600083015261427381898b613c93565b90508181036020830152614288818789613c93565b905061429760408301866140f2565b6142a460608301856140f2565b6142b160808301846140f2565b98975050505050505050565b600060e08201905081810360008301526142d8818a8c613c93565b90506142e76020830189613d43565b6142f46040830188613c2c565b61430160608301876140f2565b61430e60808301866140f2565b61431b60a08301856140f2565b61432860c08301846140f2565b9998505050505050505050565b600060808201905061434a6000830187613cff565b6143576020830186614101565b6143646040830185613cff565b6143716060830184613cff565b95945050505050565b600060208201905061438f6000830184613d25565b92915050565b600060e0820190506143aa600083018b613d43565b6143b7602083018a613c2c565b6143c460408301896140f2565b81810360608301526143d7818789613c93565b90506143e660808301866140f2565b6143f360a08301856140f2565b61440060c08301846140f2565b9998505050505050505050565b600061012082019050614423600083018c613d43565b614430602083018b613c2c565b61443d604083018a6140f2565b61444a6060830189613d43565b6144576080830188613c2c565b61446460a08301876140f2565b61447160c08301866140f2565b61447e60e08301856140f2565b61448c6101008301846140f2565b9a9950505050505050505050565b600060208201905081810360008301526144b381613d52565b9050919050565b600060208201905081810360008301526144d381613d75565b9050919050565b600060208201905081810360008301526144f381613dbb565b9050919050565b6000602082019050818103600083015261451381613dde565b9050919050565b6000602082019050818103600083015261453381613e01565b9050919050565b6000602082019050818103600083015261455381613e24565b9050919050565b6000602082019050818103600083015261457381613e47565b9050919050565b6000602082019050818103600083015261459381613e6a565b9050919050565b600060208201905081810360008301526145b381613e8d565b9050919050565b600060208201905081810360008301526145d381613eb0565b9050919050565b600060208201905081810360008301526145f381613ed3565b9050919050565b6000602082019050818103600083015261461381613ef6565b9050919050565b6000602082019050818103600083015261463381613f5f565b9050919050565b6000602082019050818103600083015261465381613f82565b9050919050565b6000602082019050818103600083015261467381613fa5565b9050919050565b6000602082019050818103600083015261469381613fc8565b9050919050565b600060208201905081810360008301526146b381613feb565b9050919050565b60006060820190506146cf6000830184614083565b92915050565b60006040820190506146ea60008301856140d4565b6146f760208301846140d4565b9392505050565b600060208201905061471360008301846140f2565b92915050565b600060808201905061472e60008301886140f2565b61473b6020830187613c2c565b61474860408301866140f2565b818103606083015261475b818486613c3b565b90509695505050505050565b6000808335600160200384360303811261478057600080fd5b80840192508235915067ffffffffffffffff82111561479e57600080fd5b6020830192506020820236038313156147b657600080fd5b509250929050565b600080833560016020038436030381126147d757600080fd5b80840192508235915067ffffffffffffffff8211156147f557600080fd5b60208301925060808202360383131561480d57600080fd5b509250929050565b6000808335600160200384360303811261482e57600080fd5b80840192508235915067ffffffffffffffff82111561484c57600080fd5b60208301925060018202360383131561486457600080fd5b509250929050565b6000823560016101800383360303811261488557600080fd5b80830191505092915050565b600061489b6148ac565b90506148a78282614bf9565b919050565b6000604051905090565b600067ffffffffffffffff8211156148d1576148d0614d0a565b5b602082029050602081019050919050565b600067ffffffffffffffff8211156148fd576148fc614d0a565b5b602082029050602081019050919050565b6000819050919050565b6000608082019050919050565b600082825260208201905092915050565b600082825260208201905092915050565b600082825260208201905092915050565b600081905092915050565b600082825260208201905092915050565b600081905092915050565b600061498e602084018461371e565b905092915050565b60006149a560208401846138ee565b905092915050565b600082905092915050565b60006149c76020840184613918565b905092915050565b60006149da82614b8b565b91506149e583614b8b565b9250827fffffffffffffffffffffffffffffffffffffffffffffffffffffffffffffffff03821115614a1a57614a19614c7d565b5b828201905092915050565b6000614a3082614b8b565b9150614a3b83614b8b565b925082614a4b57614a4a614cac565b5b828204905092915050565b6000614a6182614b8b565b9150614a6c83614b8b565b9250817fffffffffffffffffffffffffffffffffffffffffffffffffffffffffffffffff0483118215151615614aa557614aa4614c7d565b5b828202905092915050565b6000614abb82614b8b565b9150614ac683614b8b565b925082821015614ad957614ad8614c7d565b5b828203905092915050565b6000614aef82614b6b565b9050919050565b6000614b0182614b6b565b9050919050565b60008115159050919050565b6000819050919050565b60007fffffffff0000000000000000000000000000000000000000000000000000000082169050919050565b6000819050614b5882615113565b919050565b600061ffff82169050919050565b600073ffffffffffffffffffffffffffffffffffffffff82169050919050565b6000819050919050565b600060ff82169050919050565b6000614bad82614bc6565b9050919050565b6000614bbf82614b4a565b9050919050565b6000614bd182614bd8565b9050919050565b6000614be382614b6b565b9050919050565b82818337600083830152505050565b614c0282614d39565b810181811067ffffffffffffffff82111715614c2157614c20614d0a565b5b80604052505050565b6000614c3582614b8b565b91507fffffffffffffffffffffffffffffffffffffffffffffffffffffffffffffffff821415614c6857614c67614c7d565b5b600182019050919050565b6000819050919050565b7f4e487b7100000000000000000000000000000000000000000000000000000000600052601160045260246000fd5b7f4e487b7100000000000000000000000000000000000000000000000000000000600052601260045260246000fd5b7f4e487b7100000000000000000000000000000000000000000000000000000000600052602160045260246000fd5b7f4e487b7100000000000000000000000000000000000000000000000000000000600052604160045260246000fd5b6000601f19601f8301169050919050565b7f45434453413a20696e76616c6964207369676e61747572650000000000000000600082015250565b7f45434453413a20696e76616c6964207369676e6174757265206c656e67746800600082015250565b7f19457468657265756d205369676e6564204d6573736167653a0a333200000000600082015250565b7f4f776e61626c653a206e6577206f776e657220697320746865207a65726f206160008201527f6464726573730000000000000000000000000000000000000000000000000000602082015250565b7f4f726465723a206f72646572206973206e6f74207369676e656420627920626160008201527f636b656e64000000000000000000000000000000000000000000000000000000602082015250565b7f57726f6e6720636f6c6c656374696f6e00000000000000000000000000000000600082015250565b7f45434453413a20696e76616c6964207369676e6174757265202773272076616c60008201527f7565000000000000000000000000000000000000000000000000000000000000602082015250565b7f4f726465723a20726f6f74206973206e6f74207369676e656420627920636f6c60008201527f6c656374696f6e206f776e657200000000000000000000000000000000000000602082015250565b7f61646472657373206973206e6f7420616c6c6f77656420746f2073657420616e60008201527f206f70657261746f720000000000000000000000000000000000000000000000602082015250565b7f45434453413a20696e76616c6964207369676e6174757265202776272076616c60008201527f7565000000000000000000000000000000000000000000000000000000000000602082015250565b7f4f726465723a206f726465722069732065787069726564000000000000000000600082015250565b7f4f776e61626c653a2063616c6c6572206973206e6f7420746865206f776e6572600082015250565b7f4f726465723a20706f736974696f6e20697320626f7567687400000000000000600082015250565b50565b7f4f726465723a20696e76616c69642070726f6f66000000000000000000000000600082015250565b7f4661696c656420746f2073656e64000000000000000000000000000000000000600082015250565b7f4f726465723a2068617368657320646f206e6f74206d61746368000000000000600082015250565b7f5265656e7472616e637947756172643a207265656e7472616e742063616c6c00600082015250565b7f57726f6e6720616d6f756e740000000000000000000000000000000000000000600082015250565b6004811061512457615123614cdb565b5b50565b61513081614ae4565b811461513b57600080fd5b50565b61514781614af6565b811461515257600080fd5b50565b61515e81614b08565b811461516957600080fd5b50565b6004811061517957600080fd5b50565b61518581614b5d565b811461519057600080fd5b50565b61519c81614b8b565b81146151a757600080fd5b5056fea2646970667358221220db426476643bc6d62665c1fa1df44baa941af53b278a825863c93452adb7221164736f6c63430008040033",
  "linkReferences": {},
  "deployedLinkReferences": {}
}